{
  "contractName": "nftMarketV2",
  "abi": [
    {
      "anonymous": false,
      "inputs": [
        {
          "indexed": false,
          "internalType": "address",
          "name": "tokenAddress",
          "type": "address"
        },
        {
          "indexed": false,
          "internalType": "uint256",
          "name": "tokenId",
          "type": "uint256"
        }
      ],
      "name": "lendUpdated",
      "type": "event"
    },
    {
      "inputs": [
        {
          "internalType": "address",
          "name": "",
          "type": "address"
        },
        {
          "internalType": "uint256",
          "name": "",
          "type": "uint256"
        }
      ],
      "name": "offerList",
      "outputs": [
        {
          "internalType": "address",
          "name": "lender",
          "type": "address"
        },
        {
          "internalType": "address",
          "name": "buyer",
          "type": "address"
        },
        {
          "internalType": "address",
          "name": "asset",
          "type": "address"
        },
        {
          "internalType": "uint256",
          "name": "amount",
          "type": "uint256"
        },
        {
          "internalType": "uint256",
          "name": "lamount",
          "type": "uint256"
        },
        {
          "internalType": "bool",
          "name": "lend",
          "type": "bool"
        },
        {
          "internalType": "bool",
          "name": "claimed",
          "type": "bool"
        }
      ],
      "stateMutability": "view",
      "type": "function"
    },
    {
      "inputs": [
        {
          "internalType": "uint256",
          "name": "",
          "type": "uint256"
        }
      ],
      "name": "offerRepaid",
      "outputs": [
        {
          "internalType": "bool",
          "name": "",
          "type": "bool"
        }
      ],
      "stateMutability": "view",
      "type": "function"
    },
    {
      "inputs": [
        {
          "internalType": "address",
          "name": "collateralNFT",
          "type": "address"
        },
        {
          "internalType": "uint256",
          "name": "tokenId",
          "type": "uint256"
        }
      ],
      "name": "createLoan",
      "outputs": [],
      "stateMutability": "payable",
      "type": "function"
    },
    {
      "inputs": [
        {
          "internalType": "address",
          "name": "collateralNFT",
          "type": "address"
        },
        {
          "internalType": "uint256",
          "name": "tokenId",
          "type": "uint256"
        }
      ],
      "name": "cancelLoan",
      "outputs": [],
      "stateMutability": "payable",
      "type": "function"
    },
    {
      "inputs": [
        {
          "internalType": "address",
          "name": "wantNFT",
          "type": "address"
        },
        {
          "internalType": "uint256",
          "name": "tokenId",
          "type": "uint256"
        },
        {
          "internalType": "address",
          "name": "asset",
          "type": "address"
        },
        {
          "internalType": "uint256",
          "name": "amount",
          "type": "uint256"
        }
      ],
      "name": "askPrice",
      "outputs": [],
      "stateMutability": "nonpayable",
      "type": "function"
    },
    {
      "inputs": [
        {
          "internalType": "address",
          "name": "collateralNFT",
          "type": "address"
        },
        {
          "internalType": "uint256",
          "name": "tokenId",
          "type": "uint256"
        }
      ],
      "name": "goodDeal",
      "outputs": [],
      "stateMutability": "payable",
      "type": "function"
    },
    {
      "inputs": [
        {
          "internalType": "address",
          "name": "collateralNFT",
          "type": "address"
        },
        {
          "internalType": "uint256",
          "name": "tokenId",
          "type": "uint256"
        },
        {
          "internalType": "uint256",
          "name": "amount",
          "type": "uint256"
        }
      ],
      "name": "borrow",
      "outputs": [],
      "stateMutability": "nonpayable",
      "type": "function"
    },
    {
      "inputs": [
        {
          "internalType": "address",
          "name": "collateralNFT",
          "type": "address"
        },
        {
          "internalType": "uint256",
          "name": "tokenId",
          "type": "uint256"
        }
      ],
      "name": "liqudation",
      "outputs": [],
      "stateMutability": "payable",
      "type": "function"
    },
    {
      "inputs": [
        {
          "internalType": "address",
          "name": "collateralNFT",
          "type": "address"
        },
        {
          "internalType": "uint256",
          "name": "tokenId",
          "type": "uint256"
        }
      ],
      "name": "callofferList",
      "outputs": [
        {
          "internalType": "address",
          "name": "",
          "type": "address"
        }
      ],
      "stateMutability": "view",
      "type": "function"
    }
  ],
  "bytecode": "0x608060405234801561001057600080fd5b50612ad2806100206000396000f3fe6080604052600436106100865760003560e01c8063c1bce0b711610059578063c1bce0b7146101fd578063db7b1e1c14610262578063e75da59814610341578063f920acdb1461038f578063f9a731f81461041457610086565b80631f06e7881461008b5780633763e4fe146100d9578063882408e6146101275780638c714d7814610178575b600080fd5b6100d7600480360360408110156100a157600080fd5b81019080803573ffffffffffffffffffffffffffffffffffffffff16906020019092919080359060200190929190505050610462565b005b610125600480360360408110156100ef57600080fd5b81019080803573ffffffffffffffffffffffffffffffffffffffff169060200190929190803590602001909291905050506109f9565b005b34801561013357600080fd5b506101606004803603602081101561014a57600080fd5b81019080803590602001909291905050506110a7565b60405180821515815260200191505060405180910390f35b34801561018457600080fd5b506101d16004803603604081101561019b57600080fd5b81019080803573ffffffffffffffffffffffffffffffffffffffff169060200190929190803590602001909291905050506110c7565b604051808273ffffffffffffffffffffffffffffffffffffffff16815260200191505060405180910390f35b34801561020957600080fd5b506102606004803603606081101561022057600080fd5b81019080803573ffffffffffffffffffffffffffffffffffffffff1690602001909291908035906020019092919080359060200190929190505050611144565b005b34801561026e57600080fd5b506102bb6004803603604081101561028557600080fd5b81019080803573ffffffffffffffffffffffffffffffffffffffff169060200190929190803590602001909291905050506113f7565b604051808873ffffffffffffffffffffffffffffffffffffffff1681526020018773ffffffffffffffffffffffffffffffffffffffff1681526020018673ffffffffffffffffffffffffffffffffffffffff1681526020018581526020018481526020018315158152602001821515815260200197505050505050505060405180910390f35b61038d6004803603604081101561035757600080fd5b81019080803573ffffffffffffffffffffffffffffffffffffffff169060200190929190803590602001909291905050506114c0565b005b34801561039b57600080fd5b50610412600480360360808110156103b257600080fd5b81019080803573ffffffffffffffffffffffffffffffffffffffff16906020019092919080359060200190929190803573ffffffffffffffffffffffffffffffffffffffff169060200190929190803590602001909291905050506119a6565b005b6104606004803603604081101561042a57600080fd5b81019080803573ffffffffffffffffffffffffffffffffffffffff16906020019092919080359060200190929190505050611e06565b005b3373ffffffffffffffffffffffffffffffffffffffff166000808473ffffffffffffffffffffffffffffffffffffffff1673ffffffffffffffffffffffffffffffffffffffff168152602001908152602001600020600083815260200190815260200160002060000160009054906101000a900473ffffffffffffffffffffffffffffffffffffffff1673ffffffffffffffffffffffffffffffffffffffff1614610575576040517f08c379a000000000000000000000000000000000000000000000000000000000815260040180806020018281038252600f8152602001807f546f6b656e206e6f7420796f757273000000000000000000000000000000000081525060200191505060405180910390fd5b600015156000808473ffffffffffffffffffffffffffffffffffffffff1673ffffffffffffffffffffffffffffffffffffffff168152602001908152602001600020600083815260200190815260200160002060050160009054906101000a900460ff1615151461064e576040517f08c379a00000000000000000000000000000000000000000000000000000000081526004018080602001828103825260128152602001807f546f6b656e20616c7265616479206c656e74000000000000000000000000000081525060200191505060405180910390fd5b600015156000808473ffffffffffffffffffffffffffffffffffffffff1673ffffffffffffffffffffffffffffffffffffffff168152602001908152602001600020600083815260200190815260200160002060050160019054906101000a900460ff16151514610727576040517f08c379a00000000000000000000000000000000000000000000000000000000081526004018080602001828103825260138152602001807f546f6b656e20616c726561647920636c61696d0000000000000000000000000081525060200191505060405180910390fd5b6107338282333061262a565b6107a5576040517f08c379a000000000000000000000000000000000000000000000000000000000815260040180806020018281038252600d8152602001807f53656e64204e4654206661696c0000000000000000000000000000000000000081525060200191505060405180910390fd5b6040518060e00160405280600073ffffffffffffffffffffffffffffffffffffffff168152602001600073ffffffffffffffffffffffffffffffffffffffff168152602001600073ffffffffffffffffffffffffffffffffffffffff1681526020016000815260200160008152602001600015158152602001600115158152506000808473ffffffffffffffffffffffffffffffffffffffff1673ffffffffffffffffffffffffffffffffffffffff168152602001908152602001600020600083815260200190815260200160002060008201518160000160006101000a81548173ffffffffffffffffffffffffffffffffffffffff021916908373ffffffffffffffffffffffffffffffffffffffff16021790555060208201518160010160006101000a81548173ffffffffffffffffffffffffffffffffffffffff021916908373ffffffffffffffffffffffffffffffffffffffff16021790555060408201518160020160006101000a81548173ffffffffffffffffffffffffffffffffffffffff021916908373ffffffffffffffffffffffffffffffffffffffff160217905550606082015181600301556080820151816004015560a08201518160050160006101000a81548160ff02191690831515021790555060c08201518160050160016101000a81548160ff0219169083151502179055509050507f9a8b9f82436efaef523ebbd2b7a9159dde850e49d02659427826c573eecb3a5b8282604051808373ffffffffffffffffffffffffffffffffffffffff1681526020018281526020019250505060405180910390a15050565b600015156000808473ffffffffffffffffffffffffffffffffffffffff1673ffffffffffffffffffffffffffffffffffffffff168152602001908152602001600020600083815260200190815260200160002060050160009054906101000a900460ff16151514610ad2576040517f08c379a00000000000000000000000000000000000000000000000000000000081526004018080602001828103825260128152602001807f546f6b656e20616c7265616479206c656e74000000000000000000000000000081525060200191505060405180910390fd5b600015156000808473ffffffffffffffffffffffffffffffffffffffff1673ffffffffffffffffffffffffffffffffffffffff168152602001908152602001600020600083815260200190815260200160002060050160019054906101000a900460ff16151514610bab576040517f08c379a00000000000000000000000000000000000000000000000000000000081526004018080602001828103825260138152602001807f546f6b656e20616c726561647920636c61696d0000000000000000000000000081525060200191505060405180910390fd5b8173ffffffffffffffffffffffffffffffffffffffff166323b872dd306000808673ffffffffffffffffffffffffffffffffffffffff1673ffffffffffffffffffffffffffffffffffffffff168152602001908152602001600020600085815260200190815260200160002060010160009054906101000a900473ffffffffffffffffffffffffffffffffffffffff16846040518463ffffffff1660e01b8152600401808473ffffffffffffffffffffffffffffffffffffffff1681526020018373ffffffffffffffffffffffffffffffffffffffff1681526020018281526020019350505050600060405180830381600087803b158015610cac57600080fd5b505af1158015610cc0573d6000803e3d6000fd5b505050506000808373ffffffffffffffffffffffffffffffffffffffff1673ffffffffffffffffffffffffffffffffffffffff168152602001908152602001600020600082815260200190815260200160002060020160009054906101000a900473ffffffffffffffffffffffffffffffffffffffff1673ffffffffffffffffffffffffffffffffffffffff166323b872dd30336000808773ffffffffffffffffffffffffffffffffffffffff1673ffffffffffffffffffffffffffffffffffffffff1681526020019081526020016000206000868152602001908152602001600020600301546040518463ffffffff1660e01b8152600401808473ffffffffffffffffffffffffffffffffffffffff1681526020018373ffffffffffffffffffffffffffffffffffffffff1681526020018281526020019350505050602060405180830381600087803b158015610e1757600080fd5b505af1158015610e2b573d6000803e3d6000fd5b505050506040513d6020811015610e4157600080fd5b8101908080519060200190929190505050506040518060e00160405280600073ffffffffffffffffffffffffffffffffffffffff168152602001600073ffffffffffffffffffffffffffffffffffffffff168152602001600073ffffffffffffffffffffffffffffffffffffffff1681526020016000815260200160008152602001600015158152602001600115158152506000808473ffffffffffffffffffffffffffffffffffffffff1673ffffffffffffffffffffffffffffffffffffffff168152602001908152602001600020600083815260200190815260200160002060008201518160000160006101000a81548173ffffffffffffffffffffffffffffffffffffffff021916908373ffffffffffffffffffffffffffffffffffffffff16021790555060208201518160010160006101000a81548173ffffffffffffffffffffffffffffffffffffffff021916908373ffffffffffffffffffffffffffffffffffffffff16021790555060408201518160020160006101000a81548173ffffffffffffffffffffffffffffffffffffffff021916908373ffffffffffffffffffffffffffffffffffffffff160217905550606082015181600301556080820151816004015560a08201518160050160006101000a81548160ff02191690831515021790555060c08201518160050160016101000a81548160ff0219169083151502179055509050507f9a8b9f82436efaef523ebbd2b7a9159dde850e49d02659427826c573eecb3a5b8282604051808373ffffffffffffffffffffffffffffffffffffffff1681526020018281526020019250505060405180910390a15050565b60016020528060005260406000206000915054906101000a900460ff1681565b60008060008473ffffffffffffffffffffffffffffffffffffffff1673ffffffffffffffffffffffffffffffffffffffff168152602001908152602001600020600083815260200190815260200160002060000160009054906101000a900473ffffffffffffffffffffffffffffffffffffffff16905092915050565b3373ffffffffffffffffffffffffffffffffffffffff166000808573ffffffffffffffffffffffffffffffffffffffff1673ffffffffffffffffffffffffffffffffffffffff168152602001908152602001600020600084815260200190815260200160002060000160009054906101000a900473ffffffffffffffffffffffffffffffffffffffff1673ffffffffffffffffffffffffffffffffffffffff1614611257576040517f08c379a00000000000000000000000000000000000000000000000000000000081526004018080602001828103825260078152602001807f4e6f7420796f750000000000000000000000000000000000000000000000000081525060200191505060405180910390fd5b600015156000808573ffffffffffffffffffffffffffffffffffffffff1673ffffffffffffffffffffffffffffffffffffffff168152602001908152602001600020600084815260200190815260200160002060050160019054906101000a900460ff16151514611330576040517f08c379a00000000000000000000000000000000000000000000000000000000081526004018080602001828103825260138152602001807f546f6b656e20616c726561647920636c61696d0000000000000000000000000081525060200191505060405180910390fd5b806000808573ffffffffffffffffffffffffffffffffffffffff1673ffffffffffffffffffffffffffffffffffffffff16815260200190815260200160002060008481526020019081526020016000206004018190555060016000808573ffffffffffffffffffffffffffffffffffffffff1673ffffffffffffffffffffffffffffffffffffffff168152602001908152602001600020600084815260200190815260200160002060050160006101000a81548160ff021916908315150217905550505050565b6000602052816000526040600020602052806000526040600020600091509150508060000160009054906101000a900473ffffffffffffffffffffffffffffffffffffffff16908060010160009054906101000a900473ffffffffffffffffffffffffffffffffffffffff16908060020160009054906101000a900473ffffffffffffffffffffffffffffffffffffffff16908060030154908060040154908060050160009054906101000a900460ff16908060050160019054906101000a900460ff16905087565b600073ffffffffffffffffffffffffffffffffffffffff166000808473ffffffffffffffffffffffffffffffffffffffff1673ffffffffffffffffffffffffffffffffffffffff168152602001908152602001600020600083815260200190815260200160002060010160009054906101000a900473ffffffffffffffffffffffffffffffffffffffff1673ffffffffffffffffffffffffffffffffffffffff16146115d4576040517f08c379a00000000000000000000000000000000000000000000000000000000081526004018080602001828103825260128152602001807f546f6b656e20616c7265616479206c656e74000000000000000000000000000081525060200191505060405180910390fd5b600015156000808473ffffffffffffffffffffffffffffffffffffffff1673ffffffffffffffffffffffffffffffffffffffff168152602001908152602001600020600083815260200190815260200160002060050160009054906101000a900460ff161515146116ad576040517f08c379a00000000000000000000000000000000000000000000000000000000081526004018080602001828103825260128152602001807f546f6b656e20616c7265616479206c656e74000000000000000000000000000081525060200191505060405180910390fd5b8173ffffffffffffffffffffffffffffffffffffffff166342842e0e3330846040518463ffffffff1660e01b8152600401808473ffffffffffffffffffffffffffffffffffffffff1681526020018373ffffffffffffffffffffffffffffffffffffffff1681526020018281526020019350505050600060405180830381600087803b15801561173c57600080fd5b505af1158015611750573d6000803e3d6000fd5b505050506040518060e001604052803373ffffffffffffffffffffffffffffffffffffffff1681526020013373ffffffffffffffffffffffffffffffffffffffff168152602001600073ffffffffffffffffffffffffffffffffffffffff1681526020016000815260200160008152602001600015158152602001600015158152506000808473ffffffffffffffffffffffffffffffffffffffff1673ffffffffffffffffffffffffffffffffffffffff168152602001908152602001600020600083815260200190815260200160002060008201518160000160006101000a81548173ffffffffffffffffffffffffffffffffffffffff021916908373ffffffffffffffffffffffffffffffffffffffff16021790555060208201518160010160006101000a81548173ffffffffffffffffffffffffffffffffffffffff021916908373ffffffffffffffffffffffffffffffffffffffff16021790555060408201518160020160006101000a81548173ffffffffffffffffffffffffffffffffffffffff021916908373ffffffffffffffffffffffffffffffffffffffff160217905550606082015181600301556080820151816004015560a08201518160050160006101000a81548160ff02191690831515021790555060c08201518160050160016101000a81548160ff0219169083151502179055509050507f9a8b9f82436efaef523ebbd2b7a9159dde850e49d02659427826c573eecb3a5b8282604051808373ffffffffffffffffffffffffffffffffffffffff1681526020018281526020019250505060405180910390a15050565b60008111611a1c576040517f08c379a000000000000000000000000000000000000000000000000000000000815260040180806020018281038252600f8152602001807f616d6f756e74206d757374203e2030000000000000000000000000000000000081525060200191505060405180910390fd5b806000808673ffffffffffffffffffffffffffffffffffffffff1673ffffffffffffffffffffffffffffffffffffffff16815260200190815260200160002060008581526020019081526020016000206003015410611ae3576040517f08c379a00000000000000000000000000000000000000000000000000000000081526004018080602001828103825260158152602001807f596f752073686f756c642070617920686967686572000000000000000000000081525060200191505060405180910390fd5b600015156000808673ffffffffffffffffffffffffffffffffffffffff1673ffffffffffffffffffffffffffffffffffffffff168152602001908152602001600020600085815260200190815260200160002060050160019054906101000a900460ff16151514611bbc576040517f08c379a00000000000000000000000000000000000000000000000000000000081526004018080602001828103825260128152602001807f546f6b656e20616c7265616479206c656e74000000000000000000000000000081525060200191505060405180910390fd5b816000808673ffffffffffffffffffffffffffffffffffffffff1673ffffffffffffffffffffffffffffffffffffffff168152602001908152602001600020600085815260200190815260200160002060020160006101000a81548173ffffffffffffffffffffffffffffffffffffffff021916908373ffffffffffffffffffffffffffffffffffffffff160217905550806000808673ffffffffffffffffffffffffffffffffffffffff1673ffffffffffffffffffffffffffffffffffffffff1681526020019081526020016000206000858152602001908152602001600020600301819055508173ffffffffffffffffffffffffffffffffffffffff166323b872dd3330846040518463ffffffff1660e01b8152600401808473ffffffffffffffffffffffffffffffffffffffff1681526020018373ffffffffffffffffffffffffffffffffffffffff1681526020018281526020019350505050602060405180830381600087803b158015611d3357600080fd5b505af1158015611d47573d6000803e3d6000fd5b505050506040513d6020811015611d5d57600080fd5b810190808051906020019092919050505050336000808673ffffffffffffffffffffffffffffffffffffffff1673ffffffffffffffffffffffffffffffffffffffff168152602001908152602001600020600085815260200190815260200160002060010160006101000a81548173ffffffffffffffffffffffffffffffffffffffff021916908373ffffffffffffffffffffffffffffffffffffffff16021790555050505050565b60008060008473ffffffffffffffffffffffffffffffffffffffff1673ffffffffffffffffffffffffffffffffffffffff16815260200190815260200160002060008381526020019081526020016000206004015411611ea6576040517f08c379a0000000000000000000000000000000000000000000000000000000008152600401808060200182810382526000815260200191505060405180910390fd5b600115156000808473ffffffffffffffffffffffffffffffffffffffff1673ffffffffffffffffffffffffffffffffffffffff168152602001908152602001600020600083815260200190815260200160002060050160009054906101000a900460ff16151514611f57576040517f08c379a0000000000000000000000000000000000000000000000000000000008152600401808060200182810382526000815260200191505060405180910390fd5b600115156000808473ffffffffffffffffffffffffffffffffffffffff1673ffffffffffffffffffffffffffffffffffffffff168152602001908152602001600020600083815260200190815260200160002060050160009054906101000a900460ff16151514612008576040517f08c379a0000000000000000000000000000000000000000000000000000000008152600401808060200182810382526000815260200191505060405180910390fd5b60006120836064612075605f6000808873ffffffffffffffffffffffffffffffffffffffff1673ffffffffffffffffffffffffffffffffffffffff1681526020019081526020016000206000878152602001908152602001600020600301546128e990919063ffffffff16565b61296f90919063ffffffff16565b90506000808473ffffffffffffffffffffffffffffffffffffffff1673ffffffffffffffffffffffffffffffffffffffff168152602001908152602001600020600083815260200190815260200160002060020160009054906101000a900473ffffffffffffffffffffffffffffffffffffffff1673ffffffffffffffffffffffffffffffffffffffff166323b872dd306000808773ffffffffffffffffffffffffffffffffffffffff1673ffffffffffffffffffffffffffffffffffffffff168152602001908152602001600020600086815260200190815260200160002060000160009054906101000a900473ffffffffffffffffffffffffffffffffffffffff16846040518463ffffffff1660e01b8152600401808473ffffffffffffffffffffffffffffffffffffffff1681526020018373ffffffffffffffffffffffffffffffffffffffff1681526020018281526020019350505050602060405180830381600087803b1580156121f857600080fd5b505af115801561220c573d6000803e3d6000fd5b505050506040513d602081101561222257600080fd5b8101908080519060200190929190505050506000808473ffffffffffffffffffffffffffffffffffffffff1673ffffffffffffffffffffffffffffffffffffffff168152602001908152602001600020600083815260200190815260200160002060020160009054906101000a900473ffffffffffffffffffffffffffffffffffffffff1673ffffffffffffffffffffffffffffffffffffffff166323b872dd3033612329856000808a73ffffffffffffffffffffffffffffffffffffffff1673ffffffffffffffffffffffffffffffffffffffff1681526020019081526020016000206000898152602001908152602001600020600301546129f890919063ffffffff16565b6040518463ffffffff1660e01b8152600401808473ffffffffffffffffffffffffffffffffffffffff1681526020018373ffffffffffffffffffffffffffffffffffffffff1681526020018281526020019350505050602060405180830381600087803b15801561239957600080fd5b505af11580156123ad573d6000803e3d6000fd5b505050506040513d60208110156123c357600080fd5b8101908080519060200190929190505050506040518060e00160405280600073ffffffffffffffffffffffffffffffffffffffff168152602001600073ffffffffffffffffffffffffffffffffffffffff168152602001600073ffffffffffffffffffffffffffffffffffffffff1681526020016000815260200160008152602001600015158152602001600115158152506000808573ffffffffffffffffffffffffffffffffffffffff1673ffffffffffffffffffffffffffffffffffffffff168152602001908152602001600020600084815260200190815260200160002060008201518160000160006101000a81548173ffffffffffffffffffffffffffffffffffffffff021916908373ffffffffffffffffffffffffffffffffffffffff16021790555060208201518160010160006101000a81548173ffffffffffffffffffffffffffffffffffffffff021916908373ffffffffffffffffffffffffffffffffffffffff16021790555060408201518160020160006101000a81548173ffffffffffffffffffffffffffffffffffffffff021916908373ffffffffffffffffffffffffffffffffffffffff160217905550606082015181600301556080820151816004015560a08201518160050160006101000a81548160ff02191690831515021790555060c08201518160050160016101000a81548160ff0219169083151502179055509050507f9a8b9f82436efaef523ebbd2b7a9159dde850e49d02659427826c573eecb3a5b8383604051808373ffffffffffffffffffffffffffffffffffffffff1681526020018281526020019250505060405180910390a1505050565b60008473ffffffffffffffffffffffffffffffffffffffff1663095ea7b360e01b3086604051602401808373ffffffffffffffffffffffffffffffffffffffff16815260200182815260200192505050604051602081830303815290604052907bffffffffffffffffffffffffffffffffffffffffffffffffffffffff19166020820180517bffffffffffffffffffffffffffffffffffffffffffffffffffffffff83818316178352505050506040518082805190602001908083835b6020831061270a57805182526020820191506020810190506020830392506126e7565b6001836020036101000a0380198251168184511680821785525050505050509050019150506000604051808303816000865af19150503d806000811461276c576040519150601f19603f3d011682016040523d82523d6000602084013e612771565b606091505b50505060008573ffffffffffffffffffffffffffffffffffffffff166323b872dd60e01b858588604051602401808473ffffffffffffffffffffffffffffffffffffffff1681526020018373ffffffffffffffffffffffffffffffffffffffff1681526020018281526020019350505050604051602081830303815290604052907bffffffffffffffffffffffffffffffffffffffffffffffffffffffff19166020820180517bffffffffffffffffffffffffffffffffffffffffffffffffffffffff83818316178352505050506040518082805190602001908083835b60208310612872578051825260208201915060208101905060208303925061284f565b6001836020036101000a0380198251168184511680821785525050505050509050019150506000604051808303816000865af19150503d80600081146128d4576040519150601f19603f3d011682016040523d82523d6000602084013e6128d9565b606091505b5050905080915050949350505050565b6000808314156128fc5760009050612969565b600082840290508284828161290d57fe5b0414612964576040517f08c379a0000000000000000000000000000000000000000000000000000000008152600401808060200182810382526021815260200180612a7c6021913960400191505060405180910390fd5b809150505b92915050565b60008082116129e6576040517f08c379a000000000000000000000000000000000000000000000000000000000815260040180806020018281038252601a8152602001807f536166654d6174683a206469766973696f6e206279207a65726f00000000000081525060200191505060405180910390fd5b8183816129ef57fe5b04905092915050565b600082821115612a70576040517f08c379a000000000000000000000000000000000000000000000000000000000815260040180806020018281038252601e8152602001807f536166654d6174683a207375627472616374696f6e206f766572666c6f77000081525060200191505060405180910390fd5b81830390509291505056fe536166654d6174683a206d756c7469706c69636174696f6e206f766572666c6f77a2646970667358221220604f3857a4c405c3860d84e1748d1c925db6d9aa944320a81c612b65ee7f208e64736f6c63430007060033",
  "immutableReferences": {},
  "source": "// SPDX-License-Identifier: MIT\r\npragma solidity >=0.7.0 <0.9.0;\r\n\r\nimport \"@openzeppelin/contracts/math/SafeMath.sol\";\r\nimport \"@openzeppelin/contracts/token/ERC20/IERC20.sol\";\r\nimport '@openzeppelin/contracts/token/ERC721/IERC721.sol';\r\nimport '@openzeppelin/contracts/token/ERC721/ERC721Holder.sol';\r\nimport \"@openzeppelin/contracts/access/Ownable.sol\";\r\n\r\n// @TODO add aave aToken & lendingPool\r\n// IAtoken interface : Github(https://github.com/aave/protocol-v2/blob/ice/mainnet-deployment-03-12-2020/contracts/interfaces/IAToken.sol)\r\n\r\ninterface IAToken {\r\n\r\n  event Mint(address indexed from, uint256 value, uint256 index);\r\n  function mint(address user,uint256 amount,uint256 index) external returns (bool);\r\n  event Burn(address indexed from, address indexed target, uint256 value, uint256 index);\r\n  event BalanceTransfer(address indexed from, address indexed to, uint256 value, uint256 index);\r\n  function burn(address user,address receiverOfUnderlying,uint256 amount,uint256 index) external;\r\n  function mintToTreasury(uint256 amount, uint256 index) external;\r\n  function transferOnLiquidation(address from, address to, uint256 value) external;\r\n  function transferUnderlyingTo(address user, uint256 amount) external returns (uint256);\r\n}\r\n\r\n// ILendingProtocal interface\r\n// aave lending protocal\r\n// interface ILendingPool {\r\n//     function borrow(\r\n//         address asset,\r\n//         uint256 amount,\r\n//         uint256 interestRateMode,\r\n//         uint16 referralCode,\r\n//         address onBehalfOf\r\n//      ) external;\r\n      \r\n//     function repay(\r\n//         address asset,\r\n//         uint256 amount,\r\n//         uint256 rateMode,\r\n//         address onBehalfOf\r\n//       ) external returns (uint256);\r\n// }\r\n\r\ncontract nftMarketV2 {\r\n    using SafeMath for uint256;\r\n\r\n    struct erc721Offer {\r\n        address lender; // origin owner\r\n        address buyer; // future owner\r\n        address asset;\r\n        uint256 amount;\r\n        uint256 lamount;\r\n        bool lend;\r\n        bool claimed;\r\n    }\r\n\r\n    event lendUpdated(address tokenAddress, uint256 tokenId);\r\n    // owner( NFT address ) -> tokenId -> lend details\r\n    mapping(address => mapping(uint256 => erc721Offer)) public offerList;\r\n\r\n    mapping(uint256 => bool) public offerRepaid;\r\n\r\n    function createLoan(address collateralNFT, uint256 tokenId) external payable{\r\n        require(offerList[collateralNFT][tokenId].buyer == address(0), 'Token already lent'); // New Offer\r\n        require(offerList[collateralNFT][tokenId].lend == false, 'Token already lent');\r\n        // need to approve\r\n        IERC721(collateralNFT).safeTransferFrom(msg.sender, address(this), tokenId);\r\n        offerList[collateralNFT][tokenId] = erc721Offer(msg.sender, msg.sender, address(0), 0, 0 , false, false);\r\n        \r\n        emit lendUpdated(collateralNFT, tokenId);\r\n    }\r\n\r\n    function cancelLoan(address collateralNFT, uint256 tokenId) external payable{\r\n        require(offerList[collateralNFT][tokenId].lender == msg.sender, 'Token not yours');\r\n        require(offerList[collateralNFT][tokenId].lend == false, 'Token already lent');\r\n        require(offerList[collateralNFT][tokenId].claimed == false, 'Token already claim');\r\n\r\n        require(_attemptTransferFrom(collateralNFT, tokenId, msg.sender, address(this)),'Send NFT fail') ;\r\n\r\n        offerList[collateralNFT][tokenId] = erc721Offer(address(0), address(0), address(0), 0, 0, false, true);\r\n\r\n        emit lendUpdated(collateralNFT, tokenId);\r\n    }\r\n\r\n    function askPrice(address wantNFT, uint256 tokenId, address asset,uint256 amount) external {\r\n        require(amount> 0,'amount must > 0');\r\n        require(offerList[wantNFT][tokenId].amount < amount, 'You should pay higher');\r\n        require(offerList[wantNFT][tokenId].claimed == false, 'Token already lent');\r\n        // require(offerList[wantNFT][tokenId].asset == asset, 'Not this token');\r\n        \r\n        offerList[wantNFT][tokenId].asset = asset;\r\n        offerList[wantNFT][tokenId].amount = amount;\r\n\r\n        IERC20(asset).transferFrom(msg.sender, address(this), amount);\r\n\r\n        offerList[wantNFT][tokenId].buyer = msg.sender;\r\n    }\r\n\r\n    function goodDeal(address collateralNFT, uint256 tokenId) external payable {\r\n        // require(offerList[collateralNFT][tokenId].buyer == msg.sender, 'Token not yours');\r\n        require(offerList[collateralNFT][tokenId].lend == false, 'Token already lent');\r\n        require(offerList[collateralNFT][tokenId].claimed == false, 'Token already claim');\r\n\r\n        IERC721(collateralNFT).transferFrom(address(this), offerList[collateralNFT][tokenId].buyer, tokenId);\r\n        IERC20(offerList[collateralNFT][tokenId].asset).transferFrom(address(this), msg.sender, offerList[collateralNFT][tokenId].amount);\r\n\r\n        offerList[collateralNFT][tokenId] = erc721Offer(address(0), address(0), address(0),0, 0, false, true);\r\n        emit lendUpdated(collateralNFT, tokenId);\r\n    }\r\n    // beta function\r\n    function borrow(address collateralNFT, uint256 tokenId, uint256 amount) external {\r\n        // lendingPool.borrow(token, amount, interestRateModel, 7, msg.sender);\r\n        require(offerList[collateralNFT][tokenId].lender == msg.sender, 'Not you');\r\n        require(offerList[collateralNFT][tokenId].claimed == false, 'Token already claim');\r\n        \r\n        offerList[collateralNFT][tokenId].lamount = amount;\r\n        offerList[collateralNFT][tokenId].lend = true;\r\n    }\r\n\r\n    function liqudation(address collateralNFT, uint256 tokenId) external payable{\r\n        require(offerList[collateralNFT][tokenId].lamount > 0,'');\r\n        require(offerList[collateralNFT][tokenId].lend == true, '');\r\n        require(offerList[collateralNFT][tokenId].lend == true, '');\r\n        \r\n        uint256 bPrice = offerList[collateralNFT][tokenId].amount.mul(95).div(100);\r\n        IERC20(offerList[collateralNFT][tokenId].asset).transferFrom(address(this),  offerList[collateralNFT][tokenId].lender, bPrice);\r\n        IERC20(offerList[collateralNFT][tokenId].asset).transferFrom(address(this),  msg.sender, offerList[collateralNFT][tokenId].amount.sub(bPrice));\r\n        offerList[collateralNFT][tokenId] = erc721Offer(address(0), address(0), address(0), 0, 0, false, true);\r\n\r\n        emit lendUpdated(collateralNFT, tokenId);\r\n\r\n    }\r\n    \r\n    function callofferList(address collateralNFT, uint256 tokenId) public view returns(address){\r\n        return(offerList[collateralNFT][tokenId].lender);\r\n    }\r\n\r\n    function _attemptTransferFrom(address _nftContract, uint256 _nftId, address _from, address _recipient) internal returns (bool) {\r\n        _nftContract.call(abi.encodeWithSelector(IERC721(_nftContract).approve.selector, address(this), _nftId));\r\n        (bool success, ) = _nftContract.call(abi.encodeWithSelector(IERC721(_nftContract).transferFrom.selector, _from, _recipient, _nftId));\r\n        return success;\r\n    }\r\n    \r\n}",
  "sourcePath": "D:/workspace/Blockchain/nfx/contracts/nftMarketV2.sol",
  "compiler": {
    "name": "solc",
    "version": "0.7.6+commit.7338295f.Emscripten.clang"
  },
  "schemaVersion": "3.4.1",
  "updatedAt": "2021-07-04T18:21:05.924Z",
  "devdoc": {
    "kind": "dev",
    "methods": {},
    "version": 1
  },
  "userdoc": {
    "kind": "user",
    "methods": {},
    "version": 1
  }
}