{
  "contractName": "nftMarket",
  "abi": [
    {
      "inputs": [],
      "stateMutability": "nonpayable",
      "type": "constructor"
    },
    {
      "inputs": [],
      "name": "aToken",
      "outputs": [
        {
          "internalType": "contract IERC20",
          "name": "",
          "type": "address"
        }
      ],
      "stateMutability": "view",
      "type": "function"
    },
    {
      "inputs": [
        {
          "internalType": "address",
          "name": "",
          "type": "address"
        },
        {
          "internalType": "address",
          "name": "",
          "type": "address"
        },
        {
          "internalType": "uint256",
          "name": "",
          "type": "uint256"
        },
        {
          "internalType": "bytes",
          "name": "",
          "type": "bytes"
        }
      ],
      "name": "onERC721Received",
      "outputs": [
        {
          "internalType": "bytes4",
          "name": "",
          "type": "bytes4"
        }
      ],
      "stateMutability": "nonpayable",
      "type": "function"
    },
    {
      "inputs": [],
      "name": "testNft",
      "outputs": [
        {
          "internalType": "contract IERC721",
          "name": "",
          "type": "address"
        }
      ],
      "stateMutability": "view",
      "type": "function"
    },
    {
      "inputs": [
        {
          "internalType": "address",
          "name": "operator",
          "type": "address"
        },
        {
          "internalType": "address",
          "name": "from",
          "type": "address"
        },
        {
          "internalType": "uint256",
          "name": "tokenId",
          "type": "uint256"
        },
        {
          "internalType": "bytes",
          "name": "data",
          "type": "bytes"
        }
      ],
      "name": "Received",
      "outputs": [
        {
          "internalType": "bytes4",
          "name": "",
          "type": "bytes4"
        }
      ],
      "stateMutability": "nonpayable",
      "type": "function"
    },
    {
      "inputs": [
        {
          "internalType": "uint256",
          "name": "_nftId",
          "type": "uint256"
        }
      ],
      "name": "lendNft",
      "outputs": [],
      "stateMutability": "nonpayable",
      "type": "function"
    },
    {
      "inputs": [
        {
          "internalType": "uint256",
          "name": "_borrowNftId",
          "type": "uint256"
        },
        {
          "internalType": "uint256",
          "name": "_collateralId",
          "type": "uint256"
        }
      ],
      "name": "borrowNft",
      "outputs": [],
      "stateMutability": "payable",
      "type": "function"
    },
    {
      "inputs": [
        {
          "internalType": "uint256",
          "name": "_nftId",
          "type": "uint256"
        }
      ],
      "name": "requestRepossessionOfNft",
      "outputs": [],
      "stateMutability": "nonpayable",
      "type": "function"
    },
    {
      "inputs": [
        {
          "internalType": "uint256",
          "name": "_nftId",
          "type": "uint256"
        }
      ],
      "name": "protocolNftRepossession",
      "outputs": [],
      "stateMutability": "nonpayable",
      "type": "function"
    },
    {
      "inputs": [
        {
          "internalType": "uint256",
          "name": "_nftId",
          "type": "uint256"
        }
      ],
      "name": "returnNft",
      "outputs": [],
      "stateMutability": "nonpayable",
      "type": "function"
    },
    {
      "inputs": [
        {
          "internalType": "uint256",
          "name": "_nftId",
          "type": "uint256"
        }
      ],
      "name": "pullNft",
      "outputs": [],
      "stateMutability": "nonpayable",
      "type": "function"
    },
    {
      "inputs": [
        {
          "internalType": "uint256",
          "name": "_nftId",
          "type": "uint256"
        }
      ],
      "name": "isnftAvaliable",
      "outputs": [
        {
          "internalType": "bool",
          "name": "",
          "type": "bool"
        }
      ],
      "stateMutability": "view",
      "type": "function"
    },
    {
      "inputs": [
        {
          "internalType": "uint256",
          "name": "_tokenId",
          "type": "uint256"
        }
      ],
      "name": "ownerOf",
      "outputs": [
        {
          "internalType": "address",
          "name": "",
          "type": "address"
        }
      ],
      "stateMutability": "view",
      "type": "function"
    },
    {
      "inputs": [
        {
          "internalType": "uint256",
          "name": "_nftId",
          "type": "uint256"
        }
      ],
      "name": "nftReturn",
      "outputs": [
        {
          "internalType": "uint256",
          "name": "",
          "type": "uint256"
        }
      ],
      "stateMutability": "view",
      "type": "function"
    },
    {
      "inputs": [
        {
          "internalType": "uint256",
          "name": "_nftId",
          "type": "uint256"
        }
      ],
      "name": "nftBorrower",
      "outputs": [
        {
          "internalType": "address",
          "name": "",
          "type": "address"
        }
      ],
      "stateMutability": "view",
      "type": "function"
    },
    {
      "inputs": [],
      "name": "admin",
      "outputs": [
        {
          "internalType": "address",
          "name": "",
          "type": "address"
        }
      ],
      "stateMutability": "view",
      "type": "function"
    },
    {
      "inputs": [
        {
          "internalType": "uint256",
          "name": "_nftId",
          "type": "uint256"
        }
      ],
      "name": "originOwner",
      "outputs": [
        {
          "internalType": "address",
          "name": "",
          "type": "address"
        }
      ],
      "stateMutability": "view",
      "type": "function"
    },
    {
      "inputs": [],
      "name": "currentBlockTimestamp",
      "outputs": [
        {
          "internalType": "uint256",
          "name": "",
          "type": "uint256"
        }
      ],
      "stateMutability": "view",
      "type": "function"
    }
  ],
  "bytecode": "0x608060405234801561001057600080fd5b50336000806101000a81548173ffffffffffffffffffffffffffffffffffffffff021916908373ffffffffffffffffffffffffffffffffffffffff160217905550611e9b806100606000396000f3fe6080604052600436106100fd5760003560e01c806375abab7e11610095578063abf8127211610064578063abf8127214610623578063b86278ad1461064e578063c8434f5a1461069d578063e88952bd14610702578063f851a44014610767576100fd565b806375abab7e1461052b57806389eea50414610566578063a0c1f15e146105a7578063a45e7bee146105e8576100fd565b80631d5ee321116100d15780631d5ee321146103ff57806345079f4f146104505780635c9ff8e51461048b5780636352211e146104c6576100fd565b8062d9411a1461010257806309d77f0e1461024757806312a8b21114610282578063150b7a02146102ba575b600080fd5b34801561010e57600080fd5b506102126004803603608081101561012557600080fd5b81019080803573ffffffffffffffffffffffffffffffffffffffff169060200190929190803573ffffffffffffffffffffffffffffffffffffffff169060200190929190803590602001909291908035906020019064010000000081111561018c57600080fd5b82018360208201111561019e57600080fd5b803590602001918460018302840111640100000000831117156101c057600080fd5b91908080601f016020809104026020016040519081016040528093929190818152602001838380828437600081840152601f19601f8201169050808301925050505050505091929192905050506107a8565b60405180827bffffffffffffffffffffffffffffffffffffffffffffffffffffffff1916815260200191505060405180910390f35b34801561025357600080fd5b506102806004803603602081101561026a57600080fd5b81019080803590602001909291905050506107bf565b005b6102b86004803603604081101561029857600080fd5b810190808035906020019092919080359060200190929190505050610b2c565b005b3480156102c657600080fd5b506103ca600480360360808110156102dd57600080fd5b81019080803573ffffffffffffffffffffffffffffffffffffffff169060200190929190803573ffffffffffffffffffffffffffffffffffffffff169060200190929190803590602001909291908035906020019064010000000081111561034457600080fd5b82018360208201111561035657600080fd5b8035906020019184600183028401116401000000008311171561037857600080fd5b91908080601f016020809104026020016040519081016040528093929190818152602001838380828437600081840152601f19601f820116905080830192505050505050509192919290505050610f14565b60405180827bffffffffffffffffffffffffffffffffffffffffffffffffffffffff1916815260200191505060405180910390f35b34801561040b57600080fd5b506104386004803603602081101561042257600080fd5b8101908080359060200190929190505050610f28565b60405180821515815260200191505060405180910390f35b34801561045c57600080fd5b506104896004803603602081101561047357600080fd5b8101908080359060200190929190505050610f52565b005b34801561049757600080fd5b506104c4600480360360208110156104ae57600080fd5b81019080803590602001909291905050506112d1565b005b3480156104d257600080fd5b506104ff600480360360208110156104e957600080fd5b81019080803590602001909291905050506114fd565b604051808273ffffffffffffffffffffffffffffffffffffffff16815260200191505060405180910390f35b34801561053757600080fd5b506105646004803603602081101561054e57600080fd5b81019080803590602001909291905050506115b4565b005b34801561057257600080fd5b5061057b6118fe565b604051808273ffffffffffffffffffffffffffffffffffffffff16815260200191505060405180910390f35b3480156105b357600080fd5b506105bc611924565b604051808273ffffffffffffffffffffffffffffffffffffffff16815260200191505060405180910390f35b3480156105f457600080fd5b506106216004803603602081101561060b57600080fd5b810190808035906020019092919050505061194a565b005b34801561062f57600080fd5b50610638611bea565b6040518082815260200191505060405180910390f35b34801561065a57600080fd5b506106876004803603602081101561067157600080fd5b8101908080359060200190929190505050611bf2565b6040518082815260200191505060405180910390f35b3480156106a957600080fd5b506106d6600480360360208110156106c057600080fd5b8101908080359060200190929190505050611c0f565b604051808273ffffffffffffffffffffffffffffffffffffffff16815260200191505060405180910390f35b34801561070e57600080fd5b5061073b6004803603602081101561072557600080fd5b8101908080359060200190929190505050611c4c565b604051808273ffffffffffffffffffffffffffffffffffffffff16815260200191505060405180910390f35b34801561077357600080fd5b5061077c611c89565b604051808273ffffffffffffffffffffffffffffffffffffffff16815260200191505060405180910390f35b60006107b685858585610f14565b50949350505050565b600160009054906101000a900473ffffffffffffffffffffffffffffffffffffffff1673ffffffffffffffffffffffffffffffffffffffff16636352211e826040518263ffffffff1660e01b81526004018082815260200191505060206040518083038186803b15801561083257600080fd5b505afa158015610846573d6000803e3d6000fd5b505050506040513d602081101561085c57600080fd5b810190808051906020019092919050505073ffffffffffffffffffffffffffffffffffffffff163373ffffffffffffffffffffffffffffffffffffffff16146108f0576040517f08c379a0000000000000000000000000000000000000000000000000000000008152600401808060200182810382526028815260200180611d036028913960400191505060405180910390fd5b600015156003600083815260200190815260200160002060009054906101000a900460ff1615151461096d576040517f08c379a0000000000000000000000000000000000000000000000000000000008152600401808060200182810382526022815260200180611e0d6022913960400191505060405180910390fd5b60016003600083815260200190815260200160002060006101000a81548160ff021916908315150217905550600160009054906101000a900473ffffffffffffffffffffffffffffffffffffffff1673ffffffffffffffffffffffffffffffffffffffff1663095ea7b330836040518363ffffffff1660e01b8152600401808373ffffffffffffffffffffffffffffffffffffffff16815260200182815260200192505050600060405180830381600087803b158015610a2c57600080fd5b505af1158015610a40573d6000803e3d6000fd5b50505050610a5f333383604051806020016040528060008152506107a8565b50600160009054906101000a900473ffffffffffffffffffffffffffffffffffffffff1673ffffffffffffffffffffffffffffffffffffffff166323b872dd3330846040518463ffffffff1660e01b8152600401808473ffffffffffffffffffffffffffffffffffffffff1681526020018373ffffffffffffffffffffffffffffffffffffffff1681526020018281526020019350505050600060405180830381600087803b158015610b1157600080fd5b505af1158015610b25573d6000803e3d6000fd5b5050505050565b600115156003600084815260200190815260200160002060009054906101000a900460ff16151514610ba9576040517f08c379a0000000000000000000000000000000000000000000000000000000008152600401808060200182810382526023815260200180611d5c6023913960400191505060405180910390fd5b600160009054906101000a900473ffffffffffffffffffffffffffffffffffffffff1673ffffffffffffffffffffffffffffffffffffffff16636352211e826040518263ffffffff1660e01b81526004018082815260200191505060206040518083038186803b158015610c1c57600080fd5b505afa158015610c30573d6000803e3d6000fd5b505050506040513d6020811015610c4657600080fd5b810190808051906020019092919050505073ffffffffffffffffffffffffffffffffffffffff163373ffffffffffffffffffffffffffffffffffffffff1614610cda576040517f08c379a000000000000000000000000000000000000000000000000000000000815260040180806020018281038252602b815260200180611cb3602b913960400191505060405180910390fd5b610ce381610f52565b60784201600460008481526020019081526020016000208190555060006003600084815260200190815260200160002060006101000a81548160ff021916908315150217905550336005600084815260200190815260200160002060006101000a81548173ffffffffffffffffffffffffffffffffffffffff021916908373ffffffffffffffffffffffffffffffffffffffff160217905550600160009054906101000a900473ffffffffffffffffffffffffffffffffffffffff1673ffffffffffffffffffffffffffffffffffffffff1663095ea7b360008054906101000a900473ffffffffffffffffffffffffffffffffffffffff16846040518363ffffffff1660e01b8152600401808373ffffffffffffffffffffffffffffffffffffffff16815260200182815260200192505050600060405180830381600087803b158015610e2f57600080fd5b505af1158015610e43573d6000803e3d6000fd5b50505050600160009054906101000a900473ffffffffffffffffffffffffffffffffffffffff1673ffffffffffffffffffffffffffffffffffffffff166323b872dd3330856040518463ffffffff1660e01b8152600401808473ffffffffffffffffffffffffffffffffffffffff1681526020018373ffffffffffffffffffffffffffffffffffffffff1681526020018281526020019350505050600060405180830381600087803b158015610ef857600080fd5b505af1158015610f0c573d6000803e3d6000fd5b505050505050565b600063150b7a0260e01b9050949350505050565b60006003600083815260200190815260200160002060009054906101000a900460ff169050919050565b600160009054906101000a900473ffffffffffffffffffffffffffffffffffffffff1673ffffffffffffffffffffffffffffffffffffffff16636352211e826040518263ffffffff1660e01b81526004018082815260200191505060206040518083038186803b158015610fc557600080fd5b505afa158015610fd9573d6000803e3d6000fd5b505050506040513d6020811015610fef57600080fd5b810190808051906020019092919050505073ffffffffffffffffffffffffffffffffffffffff163373ffffffffffffffffffffffffffffffffffffffff16146110a0576040517f08c379a00000000000000000000000000000000000000000000000000000000081526004018080602001828103825260098152602001807f4e4f54204f574e4552000000000000000000000000000000000000000000000081525060200191505060405180910390fd5b336007600083815260200190815260200160002060006101000a81548173ffffffffffffffffffffffffffffffffffffffff021916908373ffffffffffffffffffffffffffffffffffffffff16021790555060016003600083815260200190815260200160002060006101000a81548160ff021916908315150217905550611139333383604051806020016040528060008152506107a8565b50600160009054906101000a900473ffffffffffffffffffffffffffffffffffffffff1673ffffffffffffffffffffffffffffffffffffffff1663095ea7b360008054906101000a900473ffffffffffffffffffffffffffffffffffffffff16836040518363ffffffff1660e01b8152600401808373ffffffffffffffffffffffffffffffffffffffff16815260200182815260200192505050600060405180830381600087803b1580156111ed57600080fd5b505af1158015611201573d6000803e3d6000fd5b50505050600160009054906101000a900473ffffffffffffffffffffffffffffffffffffffff1673ffffffffffffffffffffffffffffffffffffffff166323b872dd3330846040518463ffffffff1660e01b8152600401808473ffffffffffffffffffffffffffffffffffffffff1681526020018373ffffffffffffffffffffffffffffffffffffffff1681526020018281526020019350505050600060405180830381600087803b1580156112b657600080fd5b505af11580156112ca573d6000803e3d6000fd5b5050505050565b6007600082815260200190815260200160002060009054906101000a900473ffffffffffffffffffffffffffffffffffffffff1673ffffffffffffffffffffffffffffffffffffffff163373ffffffffffffffffffffffffffffffffffffffff1614611388576040517f08c379a000000000000000000000000000000000000000000000000000000000815260040180806020018281038252602a815260200180611de3602a913960400191505060405180910390fd5b600115156003600083815260200190815260200160002060009054906101000a900460ff16151514611405576040517f08c379a0000000000000000000000000000000000000000000000000000000008152600401808060200182810382526022815260200180611e0d6022913960400191505060405180910390fd5b60006003600083815260200190815260200160002060006101000a81548160ff021916908315150217905550600160009054906101000a900473ffffffffffffffffffffffffffffffffffffffff1673ffffffffffffffffffffffffffffffffffffffff166323b872dd3033846040518463ffffffff1660e01b8152600401808473ffffffffffffffffffffffffffffffffffffffff1681526020018373ffffffffffffffffffffffffffffffffffffffff1681526020018281526020019350505050600060405180830381600087803b1580156114e257600080fd5b505af11580156114f6573d6000803e3d6000fd5b5050505050565b6000600160009054906101000a900473ffffffffffffffffffffffffffffffffffffffff1673ffffffffffffffffffffffffffffffffffffffff16636352211e836040518263ffffffff1660e01b81526004018082815260200191505060206040518083038186803b15801561157257600080fd5b505afa158015611586573d6000803e3d6000fd5b505050506040513d602081101561159c57600080fd5b81019080805190602001909291905050509050919050565b600015156003600083815260200190815260200160002060009054906101000a900460ff16151514611631576040517f08c379a0000000000000000000000000000000000000000000000000000000008152600401808060200182810382526025815260200180611cde6025913960400191505060405180910390fd5b60008054906101000a900473ffffffffffffffffffffffffffffffffffffffff1673ffffffffffffffffffffffffffffffffffffffff163373ffffffffffffffffffffffffffffffffffffffff16146116d5576040517f08c379a0000000000000000000000000000000000000000000000000000000008152600401808060200182810382526033815260200180611db06033913960400191505060405180910390fd5b600115156006600083815260200190815260200160002060009054906101000a900460ff16151514611752576040517f08c379a0000000000000000000000000000000000000000000000000000000008152600401808060200182810382526037815260200180611e2f6037913960400191505060405180910390fd5b600160009054906101000a900473ffffffffffffffffffffffffffffffffffffffff1673ffffffffffffffffffffffffffffffffffffffff166323b872dd600160009054906101000a900473ffffffffffffffffffffffffffffffffffffffff1673ffffffffffffffffffffffffffffffffffffffff16636352211e846040518263ffffffff1660e01b81526004018082815260200191505060206040518083038186803b15801561180357600080fd5b505afa158015611817573d6000803e3d6000fd5b505050506040513d602081101561182d57600080fd5b81019080805190602001909291905050506007600085815260200190815260200160002060009054906101000a900473ffffffffffffffffffffffffffffffffffffffff16846040518463ffffffff1660e01b8152600401808473ffffffffffffffffffffffffffffffffffffffff1681526020018373ffffffffffffffffffffffffffffffffffffffff1681526020018281526020019350505050600060405180830381600087803b1580156118e357600080fd5b505af11580156118f7573d6000803e3d6000fd5b5050505050565b600160009054906101000a900473ffffffffffffffffffffffffffffffffffffffff1681565b600260009054906101000a900473ffffffffffffffffffffffffffffffffffffffff1681565b6007600082815260200190815260200160002060009054906101000a900473ffffffffffffffffffffffffffffffffffffffff1673ffffffffffffffffffffffffffffffffffffffff163373ffffffffffffffffffffffffffffffffffffffff1614611a01576040517f08c379a0000000000000000000000000000000000000000000000000000000008152600401808060200182810382526031815260200180611d7f6031913960400191505060405180910390fd5b60046000828152602001908152602001600020544211611a89576040517f08c379a000000000000000000000000000000000000000000000000000000000815260040180806020018281038252601f8152602001807f497420697320746f6f206561726c7920746f207265706f73736573204e46540081525060200191505060405180910390fd5b600160009054906101000a900473ffffffffffffffffffffffffffffffffffffffff1673ffffffffffffffffffffffffffffffffffffffff16636352211e826040518263ffffffff1660e01b81526004018082815260200191505060206040518083038186803b158015611afc57600080fd5b505afa158015611b10573d6000803e3d6000fd5b505050506040513d6020811015611b2657600080fd5b810190808051906020019092919050505073ffffffffffffffffffffffffffffffffffffffff163373ffffffffffffffffffffffffffffffffffffffff161415611bbb576040517f08c379a0000000000000000000000000000000000000000000000000000000008152600401808060200182810382526031815260200180611d2b6031913960400191505060405180910390fd5b60016006600083815260200190815260200160002060006101000a81548160ff02191690831515021790555050565b600042905090565b600060046000838152602001908152602001600020549050919050565b60006007600083815260200190815260200160002060009054906101000a900473ffffffffffffffffffffffffffffffffffffffff169050919050565b60006005600083815260200190815260200160002060009054906101000a900473ffffffffffffffffffffffffffffffffffffffff169050919050565b60008060009054906101000a900473ffffffffffffffffffffffffffffffffffffffff1690509056fe596f7520617265206e6f7420746865206f776e6572206f662074686520636f6c6c61746572616c204e465450726f7669646564204e465420494420686173206e6f74206265656e20626f72726f776564596f7520617265206e6f742074686520626f72726f776572206f662070726f7669646564204e4654596f752063616e6e6f74207265706f73736573204e4654207468617420697320696e20796f757220706f73736573696f6e54686973204e4654206973206e6f7420617661696c61626c6520746f20626f72726f77596f7520617265206e6f74207468652074727565206f776e6572206f66207468652070726f7669646564204e465420494446756e6374696f6e2063616c6c6572206973206e6f74207468652070726f746f636f6c2063726561746f722061646472657373596f7520617265206e6f74207468652074727565206f776e6572206f662070726f7669646564204e46545468652070726f7669646564204e465420686173206265656e20626f72726f77656450726f746f636f6c20646f6573206e6f742068617665207065726d697373696f6e20746f207265706f73736573732074686973204e4654a26469706673582212206cf8dfd95f7a1c335537017d2690a43a0246b1608709e4e2ce3690ecf4dc0c1064736f6c63430007060033",
  "immutableReferences": {},
  "source": "// SPDX-License-Identifier: MIT\r\npragma solidity >=0.7.0 <0.9.0;\r\n\r\nimport \"@openzeppelin/contracts/math/SafeMath.sol\";\r\nimport \"@openzeppelin/contracts/token/ERC20/IERC20.sol\";\r\nimport '@openzeppelin/contracts/token/ERC721/IERC721.sol';\r\nimport '@openzeppelin/contracts/token/ERC721/ERC721Holder.sol';\r\nimport \"@openzeppelin/contracts/access/Ownable.sol\";\r\n\r\ncontract nftMarket is ERC721Holder {\r\n    using SafeMath for uint256;\r\n    address _admin;\r\n    constructor() {\r\n        _admin = msg.sender;\r\n     }\r\n    \r\n    IERC721 public testNft; \r\n    IERC20 public aToken;\r\n\r\n\r\n    mapping(uint => bool) _nftAvaliable;\r\n    mapping(uint => uint) _nftReturn;\r\n    mapping(uint => address) _nftBorrower;\r\n    mapping(uint => bool) _protocalPermissoin;\r\n    mapping(uint => address) _originOwner;\r\n\r\n\r\n\r\n    function Received(address operator, \r\n        address from, \r\n        uint256 tokenId, \r\n        bytes memory data\r\n    ) public returns(bytes4) {\r\n        ERC721Holder.onERC721Received(operator, from, tokenId, data);\r\n    }\r\n\r\n    function lendNft(uint _nftId) public {\r\n        require(msg.sender == testNft.ownerOf(_nftId),\"NOT OWNER\");\r\n\r\n        _originOwner[_nftId] = msg.sender;\r\n        _nftAvaliable[_nftId] = true;\r\n\r\n        Received(msg.sender, msg.sender, _nftId, \"\");\r\n\r\n        testNft.approve(_admin, _nftId);\r\n        testNft.transferFrom(msg.sender, address(this), _nftId);\r\n    }\r\n\r\n    function borrowNft(uint _borrowNftId, uint _collateralId) public payable {\r\n        require(_nftAvaliable[_borrowNftId] == true, \"This NFT is not available to borrow\");\r\n        require(msg.sender == testNft.ownerOf(_collateralId), \"You are not the owner of the collateral NFT\");\r\n\r\n        lendNft(_collateralId);\r\n\r\n        _nftReturn[_borrowNftId] = block.timestamp + 2 minutes;\r\n\r\n        _nftAvaliable[_borrowNftId] = false;\r\n\r\n        _nftBorrower[_borrowNftId] = msg.sender;\r\n\r\n        testNft.approve(_admin, _borrowNftId);\r\n        testNft.transferFrom(msg.sender, address(this), _borrowNftId);\r\n    }\r\n\r\n    function requestRepossessionOfNft(uint _nftId) public {\r\n        require(msg.sender == _originOwner[_nftId], \"You are not the true owner of the provided NFT ID\");\r\n        require(block.timestamp > _nftReturn[_nftId], \"It is too early to reposses NFT\");\r\n        require(msg.sender != testNft.ownerOf(_nftId), \"You cannot reposses NFT that is in your possesion\");\r\n\r\n        _protocalPermissoin[_nftId] = true;\r\n    }\r\n\r\n   function protocolNftRepossession(uint _nftId) public {\r\n        require(_nftAvaliable[_nftId] == false, \"Provided NFT ID has not been borrowed\");\r\n        require(msg.sender == _admin, \"Function caller is not the protocol creator address\");\r\n        require(_protocalPermissoin[_nftId] == true, \"Protocol does not have permission to repossess this NFT\");\r\n\r\n        testNft.transferFrom(testNft.ownerOf(_nftId), _originOwner[_nftId], _nftId);\r\n    }\r\n\r\n     function returnNft(uint _nftId) public {\r\n        require(msg.sender == testNft.ownerOf(_nftId), \"You are not the borrower of provided NFT\");\r\n        require(_nftAvaliable[_nftId] == false, \"The provided NFT has been borrowed\");\r\n        _nftAvaliable[_nftId] = true;\r\n        testNft.approve(address(this), _nftId);\r\n        Received(msg.sender, msg.sender, _nftId, \"\");\r\n        testNft.transferFrom(msg.sender, address(this), _nftId);\r\n    }\r\n\r\n    function pullNft(uint _nftId) public {\r\n        require(msg.sender == _originOwner[_nftId], \"You are not the true owner of provided NFT\");\r\n        require(_nftAvaliable[_nftId] == true, \"The provided NFT has been borrowed\");\r\n        _nftAvaliable[_nftId] = false;\r\n        testNft.transferFrom(address(this), msg.sender, _nftId);\r\n    }\r\n\r\n    // view\r\n    function isnftAvaliable(uint _nftId) public view returns (bool) {\r\n        return _nftAvaliable[_nftId];\r\n    }\r\n    \r\n    function ownerOf(uint _tokenId) public view returns (address) {\r\n        return testNft.ownerOf(_tokenId);\r\n    }\r\n\r\n    function nftReturn(uint _nftId) public view returns (uint) {\r\n        return _nftReturn[_nftId];\r\n    }\r\n\r\n    function nftBorrower(uint _nftId) public view returns (address) {\r\n        return _nftBorrower[_nftId];\r\n    }\r\n\r\n    function admin() public view returns (address) {\r\n        return _admin;\r\n    }\r\n\r\n    function originOwner(uint _nftId) public view returns (address) {\r\n        return _originOwner[_nftId];\r\n    }\r\n\r\n    function currentBlockTimestamp() public view returns (uint) {\r\n        return block.timestamp;\r\n    }\r\n\r\n}\r\n",
  "sourcePath": "D:/workspace/Blockchain/nfx/contracts/nftMarket.sol",
  "compiler": {
    "name": "solc",
    "version": "0.7.6+commit.7338295f.Emscripten.clang"
  },
  "schemaVersion": "3.4.1",
  "updatedAt": "2021-07-04T18:21:05.804Z",
  "devdoc": {
    "kind": "dev",
    "methods": {
      "onERC721Received(address,address,uint256,bytes)": {
        "details": "See {IERC721Receiver-onERC721Received}. Always returns `IERC721Receiver.onERC721Received.selector`."
      }
    },
    "version": 1
  },
  "userdoc": {
    "kind": "user",
    "methods": {},
    "version": 1
  }
}